:020000040800F2
:1000000080140020DD01000867180008111700089F
:10001000651800080F030008B52000080000000064
:100020000000000000000000000000004501000882
:10003000470300080000000089010008251B000894
:10004000F7010008F7010008F7010008F7010008B0
:10005000F7010008F7010008F7010008F7010008A0
:10006000F7010008F7010008F7010008F701000890
:10007000F7010008F7010008F70100081103000864
:10008000F7010008F7010008F7010008F701000870
:10009000F7010008F7010008F7010008F701000860
:1000A000F7010008D91B0008F7010008F701000854
:1000B000F7010008F7010008F7010008F701000840
:1000C000F7010008F7010008F7010008F701000830
:1000D000F70100080D200008F7010008A92000081A
:1000E000F7010008F7010008F7010008F701000810
:1000F000F7010008F7010008F7010008F701000800
:10010000F7010008F7010008F7010008F7010008EF
:10011000F7010008F7010008F7010008F7010008DF
:10012000F7010008F7010008F7010008F7010008CF
:10013000DFF80CD000F0CAF8004800477525000829
:1001400080140020224B19680868B0E8F00F80F393
:100150000988BFF36F8F4FF0000080F311884EF0D5
:100160000D0E70470000000006480068006880F32C
:10017000088862B661B6BFF34F8FBFF36F8F00DFA1
:1001800000BF00BF08ED00E0EFF30980BFF36F8F01
:100190000F4B1A6820E9F00F106008B54FF05000BF
:1001A00080F31188BFF34F8FBFF36F8F02F06AFEA9
:1001B0004FF0000080F31188BDE808401968086816
:1001C000B0E8F00F80F30988BFF36F8F704700BF6E
:1001D00048000020EFF30580704700000648804784
:1001E00006480047FEE7FEE7FEE7FEE7FEE7FEE71C
:1001F000FEE7FEE7FEE7FEE7911B0008310100087D
:10020000202A04DB203A21FA02F00021704721FA6B
:1002100002F3D040C2F120029140084319467047D2
:1002200040EA01039B0703D009E008C9121F08C078
:10023000042AFAD203E011F8013B00F8013B521EF8
:10024000F9D27047D2B201E000F8012B491EFBD26F
:1002500070470022F6E710B513460A4604461946D1
:10026000FFF7F0FF204610BD2DE9F05F05460020A6
:1002700092469B4688460646814640241BE0284617
:10028000414647462246FFF7BBFF53465A46C01A2F
:10029000914110D311461846224600F029F82D1A34
:1002A00067EB01084F4622460120002100F020F8AC
:1002B00017EB00094E41201EA4F10104DFDC484683
:1002C00031462A464346BDE8F09F0000064C074DE4
:1002D00006E0E06840F0010394E807009847103416
:1002E000AC42F6D3FFF728FF90350008B035000880
:1002F000202A04DB203A00FA02F1002070479140E6
:10030000C2F1200320FA03F3194390407047FEE73F
:10031000014800F0C9B800000803002030B590F88B
:1003200040500124AC40C56B6C6004686360436856
:10033000102B036803D099600068C26030BD9A60DA
:100340000068C16030BD704701680A6822F00E0283
:100350000A6001680A6822F001020A6090F84020F1
:10036000C36B012101FA02F25A6080F821100021CA
:1003700080F82010084670472DE9F05F90F82110B2
:100380000024022903D004218163012485E001684F
:100390000A6822F00E020A6001680A6822F001026F
:1003A0000A603F4E3E4FB215DFF8F4C0DFF8F09020
:1003B000DFF8ECA0DFF8E8B0DFF8E4E00168783FB0
:1003C00013011502ACF1640CA9F15009AAF13C0A21
:1003D000ABF1280BAEF1140E4FF48018B14227D9BF
:1003E000B9420ED0614512D049451DD0514518D0B3
:1003F000594518D0714501D1424615E0294EB14208
:1004000001D1012210E0274E1436B14201D1102251
:100410000AE0244E2836B14206D0224A3C329142AC
:1004200001D11A4600E02A461E49091F0A602BE046
:10043000B94213D0614517D0494522D051451DD04E
:1004400059451DD0714501D142461AE0B14202D151
:100450004FF0807215E0134EB14201D1012210E03D
:10046000104E1436B14201D110220AE00D4E28364A
:10047000B14206D00B4A3C32914201D11A4600E00B
:100480002A46074980394A60012180F8211000215D
:1004900080F82010416B01B188472046BDE8F09FED
:1004A00080000240080402402DE9F05FC16B0A6839
:1004B00001680B68046C4FF0040808FA04F8844DD6
:1004C000844E854FDFF814C2DFF81492DFF814A2CF
:1004D000DFF814B2DFF814E218EA020F65D05FEA21
:1004E000437862D50A68920603D40A6822F00402AF
:1004F0000A60DFF8F0814FF48062016808F11408A7
:1005000013011402414524D9A9420DD0B1420FD0A4
:10051000B9421AD0614515D0494515D0514501D190
:10052000120312E0594501D104220EE0714501D1B8
:1005300040220AE06D4D1435A94206D06B4A28329C
:10054000914201D11A4600E022466749091F0A601C
:1005500029E0A94213D0B14215D0B94220D061455B
:100560001BD049451BD0514502D14FF4800217E002
:10057000414502D14FF0806212E0594501D1042279
:100580000EE0714501D140220AE0584D1435A942D0
:1005900006D0564A2832914201D11A4600E022463E
:1005A0004B4908394A60C16A71E04FF0020808FA05
:1005B00004F818EA020F70D05FEA83786DD50A68F4
:1005C000920606D40A6822F00A020A60012180F825
:1005D0002110DFF810814FF40072016808F114084F
:1005E00013011402414524D9A9420DD0B1420FD0C4
:1005F000B9421AD0614515D0494515D0514501D1B0
:10060000120312E0594501D102220EE0714501D1D9
:1006100020220AE0354D1435A94206D0334A28324B
:10062000914201D11A4600E022462F49091F0A6073
:1006300029E0A94213D0B14215D0B94220D061457A
:100640001BD049451BD0514502D14FF4001217E091
:10065000414502D14FF0007212E0594501D102220A
:100660000EE0714501D120220AE0204D1435A94247
:1006700006D01E4A2832914201D11A4600E0224695
:10068000134908394A60002180F82010816A002946
:100690001CD0BDE8F05F0847FFE70825A5401542DC
:1006A00014D01A0712D50A6822F00E020A6090F8D8
:1006B0004020C36B012101FA02F25A60816380F885
:1006C0002110002180F82010016BE0E7BDE8F09FC9
:1006D000080002401C00024030000240440002407A
:1006E000580002406C000240080402401C04024012
:1006F00030B560B11C4A03681421934209D21B4AE9
:100700001A44B2FBF1F18900016419490AE00120A1
:1007100030BD154A52421A44B2FBF1F1890001641E
:1007200011490839C163022180F821101A6843F683
:10073000F0718A43F0E901142143D0E902452C43CA
:1007400021430469214344692143846921431143BE
:100750001960002141628162C1620163416301222B
:1007600042770177084630BD08040240F8FFFDBF1C
:100770000000024070B5044690F8200000250128D2
:100780000CD0012084F8200094F821600020012E74
:1007900006D084F820000225284670BD022070BDD6
:1007A000022684F82160A0632068066826F001060E
:1007B00006602046FFF7B2FDE06A00282068016865
:1007C00002D041F00E0106E021F004010160206832
:1007D000016841F00A0101602068016841F00101EF
:1007E0000160D9E72DE9F84FDFF8B8A100220AF13E
:1007F000040B144601274FF00F090BF1040E00BF44
:100800000B6807FA04F52B40AB4274D1DFF898C1AE
:100810004E68A6EB0C0866452BD00DDC032E34D0B9
:1008200005DC36B3012E19D0022E2FD11BE0112E7C
:1008300016D0122E2AD119E0B8F5881F19D006DC7F
:10084000B8F5803F15D0B8F5801F1FD111E0B8F57D
:10085000001F0ED0B8F5041F18D10AE0CA6815E0D1
:10086000CA68121D12E0CA6808320FE0CA680C326A
:100870000CE08A682AB1012A4FF0080203D04561D2
:1008800004E0042202E0056100E00022FF2B01D811
:10089000064601E000F104064FEA840501D9A5F1FE
:1008A0002005D6F800C009FA05F82CEA080C02FA6F
:1008B00005F54CEA050CC6F800C04D68ED006AD598
:1008C0003A4DAE6946F00106AE61AD6924F003060B
:1008D00005F001050095364D06EB050CDCF80850D7
:1008E000A6074FEA167809FA08F6B543314EB0422A
:1008F00002D100261AE04EE02F4EB04201D101266F
:1009000014E02E4EB04201D102260FE02C4EB04230
:1009100001D103260AE02B4EB04201D1042605E0A6
:10092000294EB04201D1052600E0062606FA08F657
:100930002E43CCF808604D68DAF80060ED035546A8
:1009400001D51E4300E09E432E604D68AD0305D5E2
:10095000DBF800601E43CBF8006004E0DBF80050D9
:100960009D43CBF800504D68DEF80060ED027546FF
:1009700001D51E4300E09E432E604D68AD0205D5B3
:10098000084D0C352E681E432E6004E0054E0C36D3
:1009900035689D433560641C102CFFF431AFBDE811
:1009A000F88F000000040140000011100010024008
:1009B0000000014000080140000C0140001001400F
:1009C0000014014000180140001C014001488068EB
:1009D000704700001400002002488168027811442A
:1009E0008160704714000020074810B5016841F08D
:1009F00010010160032000F0B7F8002000F006F8B5
:100A000000F03EF8002010BD0020024000B5014675
:100A100087B00022192000F087F8192000F078F83C
:100A20001348816941F400618161806905A900F47E
:100A300000600690684600F053F900F087F90D4910
:100A40000D4AB0FBF1F10D48491E0260416040F2D1
:100A5000E7320021C0E90321816000F061FB10B1A1
:100A6000012007B000BD054800F076FBF9E7000063
:100A70000010024040420F00002C01404C030020B7
:100A8000214808B5816941F001018161816901F066
:100A900001010091C16941F08051C161C06900F05C
:100AA00080500090032000F05FF8002211466FF0A4
:100AB0000B0000F039F8002211466FF00A0000F038
:100AC00033F8002211466FF0090000F02DF80022E3
:100AD0001146501F00F028F800221146101F00F0A8
:100AE00023F800220F21901E00F01EF800220F2193
:100AF000501E00F019F80548416821F0E06141F00E
:100B00000071416008BD000000100240000001407B
:100B100000F01F02012191404009800000F1E02017
:100B2000C0F8001170470000F0B40E4B1B680C4673
:100B3000C3F30223C3F10705042D00D90425191DB1
:100B4000072901D2002300E0DB1E012606FA05F189
:100B5000491E214099409E40761E16403143F0BC0C
:100B600000F082BE0CED00E0064900F007020868C4
:100B70004FF6FF03184040EA0220034A1043086082
:100B8000704700000CED00E00000FA052DE9F04789
:100B9000DFF83C8105460E46D8F8000000F007005B
:100BA000B0420CD2D8F8001021F007013143C8F848
:100BB0000010D8F8000000F00700B04263D1287898
:100BC000444C800705D56068A96820F0F000084310
:100BD00060602878C00745D06868012816D0216871
:100BE000022816D0890700294DDA616821F0030137
:100BF00001436160FFF7EAFE6968074641F2883009
:100C000001290FD00229814619D027E021688903E4
:100C1000E9E78901E7E700BFFFF7D8FEC11B4945B7
:100C200001D918E081466068C0F381000128F3D142
:100C300018E000BFFFF7CAFEC11B49450BD860682A
:100C4000C0F381000228F5D10CE000BFFFF7BEFE23
:100C5000C11B494502D90320BDE8F087606810F048
:100C60000C0FF3D1D8F80010404601F00701B14253
:100C70000BD9016821F0070131430160006800F0E1
:100C80000700B04201D00120E6E72878400705D5EB
:100C90006068E96820F4E060084360602878000735
:100CA00006D56068296920F4605040EAC1006060A0
:100CB00000F05CF86168084AC1F30311515CC84058
:100CC000064908600020FFF7A1FE0020C4E70000ED
:100CD0000020024000100240603500082000002083
:100CE0000F2202600C4A536803F003034360536809
:100CF00003F0F0038360536803F4E063C360526859
:100D00004FF4E06303EAD20202610448006800F095
:100D100007000860704700000010024000200240F9
:100D20000148006870470000200000200448054981
:100D300000684968044AC1F30221515CC840704709
:100D400020000020001002407035000804480549CA
:100D500000684968044AC1F3C221515CC840704729
:100D600020000020001002407035000812A185B05C
:100D70000FC98DE80F0014A0144A00680490516850
:100D8000134801F00C03042B10D0082B0ED1C1F333
:100D90008343C9031DF803000AD5516804AAC1F3AF
:100DA0004041515C0A4A5043B0FBF1F005B0704736
:100DB00008494843FAE7000002030405060708094A
:100DC0000A0B0C0D0E0F1010010200000010024063
:100DD00000127A0000093D002DE9F84F0446007822
:100DE000B94DC00748D06868C0F38100012807D01A
:100DF0006868C0F38100022809D16868C00306D57D
:100E00002868800338D5606800286FD034E06068B7
:100E1000B0F5803F0BD010B1B0F5A02F11D02868ED
:100E200020F480302860286820F4802002E02868C0
:100E300040F480302860606888B1FFF7C7FD06463F
:100E400009E0286840F480202860F0E7FFF7BEFD45
:100E5000801B642875D828688003F7D50CE0FFF75D
:100E6000B5FD064605E000BFFFF7B0FD801B642816
:100E7000F0D828688003F7D42078944E80074FF08C
:100E800001094FF000083BD5686810F00C0F07D03F
:100E90006868C0F38100022809D16868C00306D4DD
:100EA0002868800714D5206901281FD110E0206927
:100EB000B0B1C6F80090FFF789FD074605E000BF16
:100EC000FFF784FDC01B0228C4D828688007F7D527
:100ED0002868616920F0F80040EAC10028600FE04E
:100EE000C6F80080FFF772FD074606E0E9E000BFA4
:100EF000FFF76CFDC01B022823D828688007F7D4B1
:100F0000207800072CD57248A169D9B1C0F80090AB
:100F1000FFF75CFD074604E0FFF758FDC01B022801
:100F20000FD8686A8007F7D56A484FF4FA5100680D
:100F3000B0FBF1F0009000BF0098411E0091FAD282
:100F40000EE080E0C0F80080FFF740FD074604E0B7
:100F5000FFF73CFDC01B022875D8686A8007F7D4EC
:100F60002078400760D5E8690027C00008D4E86908
:100F700040F08050E861E869012700F0805000905F
:100F800055480168C90513D40168834641F480714E
:100F90000160FFF71BFD824606E000BFFFF716FD6C
:100FA000A0EB0A0064284ED8DBF80000C005F5D598
:100FB000E06801280AD008B1052813D0286A20F07B
:100FC00001002862286A20F0040002E0286A40F04C
:100FD00001002862E06841F2883B98B1FFF7F6FC17
:100FE00082460BE0286A40F004002862EEE700BF6A
:100FF000FFF7ECFCA0EB0A0159455AD8286A800794
:10100000F6D50CE0FFF7E2FC824605E0FFF7DEFCD8
:10101000A0EB0A0159454CD8286A8007F6D41FB1C5
:10102000E86920F08050E861E06988B36968C1F33D
:101030008101022945D00228C6F8608004D0FFF75C
:10104000C5FC044638E034E0FFF7C0FC074604E086
:10105000FFF7BCFCC01B02282BD828688001F7D4FE
:10106000206AB0F5803F05D16868A16820F400309F
:1010700008436860D4E908010843696821F47411E1
:1010800008436860C6F86090FFF7A0FC044606E0DD
:1010900015E000BFFFF79AFC001B022809D828685A
:1010A0008001F7D50BE000BFFFF790FC001B022882
:1010B00002D90320BDE8F88F28688001F4D400200D
:1010C000F8E70120F6E7000000100240000042426D
:1010D0008004424220000020007000404FF0E021D8
:1010E0000428086903D020F004000861704740F02C
:1010F0000400FAE710B5401EB0F1807F01D3012053
:1011000010BD4FF0E02460610F21601700F0ACFBD0
:101110000020A06107202061002010BD70477047AB
:1011200010B5040003D094F83D0010B107E0012091
:1011300010BD002084F83C00204600F00CF802208E
:1011400084F83D00211D206800F04CFD012084F84A
:101150003D00002010BD70470168CA6842F00102DE
:10116000CA600068016841F0010101600020704719
:10117000704770B50446006801694FF00005C94327
:10118000890715D4C168C943890711D4E91E0161D3
:1011900001202077206880698007204602D0FFF771
:1011A000E7FF04E000F098F8204600F096F8257775
:1011B00020680169C943490717D4C168C943490771
:1011C00013D46FF004010161022020772068806948
:1011D00010F4407F204602D0FFF7CAFF04E000F081
:1011E0007BF8204600F079F8257720680169C9432B
:1011F000090716D4C168C943090712D46FF0080162
:101200000161042020772068C0698007204602D051
:10121000FFF7AEFF04E000F05FF8204600F05DF855
:10122000257720680169C943C90617D4C168C94335
:10123000C90613D46FF010010161082020772068DF
:10124000C06910F4407F204602D0FFF791FF04E010
:1012500000F042F8204600F040F825772068016948
:10126000C943C90708D1C168C943C90704D1891E48
:101270000161204600F032F820680169C94309067F
:1012800009D4C168C943090605D46FF08001016122
:101290002046FFF743FF20680169C943490609D486
:1012A000C168C943490605D46FF040010161204679
:1012B00000F01EF820680169C94389060BD4C16893
:1012C000C943890607D46FF0200101612046BDE8BB
:1012D0007040FFF724BF70BD704770470068034936
:1012E000884201D1FFF778BB70470000002C014015
:1012F000704710B504460068416994F83920C1F37D
:10130000C011212A0BD151B1416921F08001416105
:10131000206B08B1FFF718F8204600F007FD2068A1
:10132000416994F83A20C1F38011222A0BD151B1BE
:10133000416921F040014161606B08B1FFF704F899
:10134000204600F0E5FC002010BD704770B5026833
:1013500004461068D168536910F00F0F50D003F0A5
:10136000010501F4907635435DD0C20705D0CA056A
:1013700003D5E26B42F00102E263420705D5DA07CA
:1013800003D0E26B42F00202E263820705D5DA077E
:1013900003D0E26B42F00402E263020705D5DA07EC
:1013A00003D0E26B42F00802E263E26B002A33D022
:1013B000800604D5880602D5204600F0C0FC2068CF
:1013C0004069E16BC0F38010090700D428B32046C0
:1013D00000F09EFC2068416949061AD5416921F058
:1013E00040014161606BA0B11B494163606BFEF736
:1013F000C3FF002810D0606B416BBDE87040084708
:10140000830610D58B060ED52046BDE8704000F04F
:1014100096BC2046FFF799FF70BD2046FFF795FF69
:101420000020E06370BD030606D50B0604D52046F8
:10143000BDE8704000F086BD4006F3D54806F1D502
:10144000D168204621F04001D160202184F8391074
:1014500000F05DF970BD0000711C000870B504005B
:1014600004D094F83900002510B106E0012070BDC9
:1014700084F83850204600F023F8242084F83900FE
:101480002068C16821F40051C160204600F0A2FC30
:101490002068016921F4904101612068416921F0CF
:1014A0002A0141612068C16841F40051C160E563CF
:1014B000202084F8390084F83A00002070BD000034
:1014C000F0B5064603683248304D0024022203215D
:1014D000071585B0AB4233D1836943F48043836100
:1014E00080692C4D00F4804004901002CDE9000288
:1014F000039169462846FFF775F9CDE900746946FE
:1015000028460294FFF76EF9244D2348C5E90004EC
:101510008020C5E902402C616C61AC612846EC6119
:10152000FFF7E6F818B18D211DA000F0C4FD75632A
:101530000022052125206E62FFF7F6FA252020E023
:101540001B4DAB421FD1C36943F48023C361C06903
:10155000184D00F48020CDE90310CDE900726946F2
:101560002846FFF73FF9E814CDE90004694628460C
:101570000294FFF737F9002205212720FFF7D4FA5C
:101580002720FFF7C5FA05B0F0BD00000038014084
:1015900000100240000801405800024008030020EB
:1015A0002E2E2F5372632F75736172742E63000099
:1015B00000480040000C0140F8B5044690F83A009D
:1015C00020283CD1C1B3BAB394F83800012836D0F2
:1015D000012084F83800A162A2850025E56322205D
:1015E00084F83A00636B17489862636B1648D862B8
:1015F000636B16481863606B134645630846666B59
:10160000216802463046091DFFF7B4F820680168DA
:101610004168009184F83850C16841F48071C1601C
:101620002068416941F0010141612068416941F050
:10163000400141610020F8BDFFE70120FBE70220E7
:10164000F9E70000CB1C0008071D0008811C0008FA
:10165000704770472DE9F843044690F839001F465B
:1016600016460D46202850D1A5B19EB194F83800F9
:1016700001284AD0012084F838004FF00008C4F84F
:101680003C80212084F83900FFF7A0F9A684814628
:10169000E68426E00120BDE8F883E08C401EE0846B
:1016A000A0684B46B0F5805F4FF000024FF080011C
:1016B0002046009703D000F076FCE8B90DE000F07A
:1016C00072FCC8B928882168C0F308004860206906
:1016D00008B16D1C05E0AD1C03E0216815F8010B95
:1016E0004860E08C0028D8D14B460022402120469B
:1016F000009700F058FC08B10320CCE7202084F8C4
:10170000390084F838800020C5E70220C3E770471D
:10171000FEE70000094808B5416941F00101416157
:101720004069002200F00100009005210F20FFF722
:10173000FBF9BDE808400F20FFF7EAB900100240AE
:1017400010B58AB003220021012001F019FC0C4CD5
:1017500014220C49A0606846FEF762FD002168462D
:1017600000F044FF074920601422143105A8FEF759
:1017700057FD002105A800F039FF60600AB010BDD8
:1017800004000020383500080D4808B5816941F093
:1017900020018161816901F020010091816941F09E
:1017A00008018161816901F008010091816941F0BE
:1017B00004018161806900F00400009008BD000010
:1017C000001002400F4810B50D4901604FF49651CA
:1017D00041604FF48051816000214FF48062C0E984
:1017E00003120C22C0E90521C161FFF737FE002872
:1017F00005D0BDE810404F2103A000F05CBC10BD37
:1018000000380140880200202E2E2F5372632F755E
:10181000736172742E6300000D4810B50B490160AE
:101820004FF4E1314160002181600C22C160C0E9C8
:1018300004128161C161FFF711FE002805D0BDE8E7
:101840001040622103A000F036BC10BD00480040EB
:10185000C80200202E2E2F5372632F75736172748D
:101860002E630000FEE770470907090E002806DA1C
:1018700000F00F0000F1E02080F8141D704700F127
:10188000E02080F8001470474FF4FA74204600F00E
:1018900097FEFBE708B53D4EB06800286DD00023E9
:1018A0001A46194601F090FB394D4FF0FF380027DA
:1018B000002342461946B06801F086FB297835A01E
:1018C00000F0FAFB0F232A7837493848FFF7C2FEA9
:1018D000287800284BD033A000F0EEFB324C34A027
:1018E000217800F0E9FB617836A000F0E5FB237970
:1018F000E278A17838A000F0DFFB6179A2790804D2
:10190000E37900EB0220184400903DA000F0D4FBE6
:10191000A37A627A217A47A000F0CEFBE17A227B9B
:101920000804637B00EB0220184400904BA000F0F9
:10193000C3FB237CE27BA17B55A000F0BDFB617C57
:10194000A27C0804E37C00EB02201844009059A01C
:1019500000F0B2FB217D63A000F0AEFBA27D617DB3
:1019600066A000F0A9FBE17D69A000F0A5FB297845
:101970000D48FEF76EFC2F709AE7502080F3118817
:10198000BFF34F8FBFF36F8FFEE70000040000200E
:10199000010000200D0A2072785F6C656E203D20EA
:1019A000253032640D0A000087010020C8020020A3
:1019B0005374617465205245472069732025580D82
:1019C0000A000000436865636B2052454720697335
:1019D0002025580D0A000000566F6C746167652061
:1019E000706172616D65746572205245472069733C
:1019F000202558202558202558200D0A00000000D9
:101A0000566F6C74616765205245472069732025C5
:101A1000582025582025582C20616E6420566F6C64
:101A2000746167652056616C756520697320256453
:101A30000D0A000043757272656E742070617261E8
:101A40006D657465722052454720697320255820C2
:101A50002558202558200D0A000000004375727299
:101A6000656E7420524547206973202558202558FB
:101A70002025582C20616E642043757272656E7447
:101A80002056616C75652069732025640D0A00007D
:101A9000506F77657220706172616D657465722038
:101AA0005245472069732025582025582025582065
:101AB0000D0A0000506F7765722052454720697308
:101AC0002025582025582025582C20616E64205050
:101AD0006F7765722056616C756520697320256487
:101AE0000D0A0000446174612055706461746120C6
:101AF0005245472069732025580D0A005046205250
:101B000045472069732025582025580D0A000000FC
:101B1000436865636B53756D524547206973202593
:101B2000580D0A0000F058BD30B58FB001210804EF
:101B3000CDE900100024029402250491CDE907505C
:101B40004FF4E01009906846FFF746F900B1FEE750
:101B50000F20CDE90A054FF48060CDE90C40022149
:101B60000AA80E94FFF712F800B1FEE7FFF7D8F8C5
:101B70004FF47A71B0FBF1F0FFF7BCFA0420FFF7E5
:101B8000ADFA00220F21501EFEF7CEFF0FB030BD80
:101B90000D48016841F00101016041680B4A1140A4
:101BA000416001680A4A11400160016821F4802106
:101BB0000160416821F4FE0141604FF41F01816022
:101BC0000449C00308607047001002400000FFF89D
:101BD000FFFFF6FE08ED00E00148FFF7CABA00007B
:101BE0004C030020F0B502681C4B1D4D1D4E1E4FCE
:101BF0001E4C4FF0804C984209D0A04207D060455F
:101C000005D0A84203D0B04201D0B84204D122F09E
:101C1000700E4A6842EA0E02984209D0A04207D0EC
:101C2000604505D0A84203D0B04201D0B84203D1EC
:101C300022F44075CA682A4322F080054A692A4383
:101C400002608A68C2620A688262984201D0A04239
:101C500001D10969016301214161F0BD002C0140FE
:101C60000004004000080040000C00400034014027
:101C700010B5406A0021C185C184FFF766FB10BD25
:101C800070B5446A2068406994F83910C0F3C010F8
:101C90000025212904D118B1E584204600F046F83A
:101CA0002068406994F83A10C0F38010222904D1CA
:101CB00018B1E585204600F02BF8E06B40F01000ED
:101CC000E0632046FFF741FB70BD10B50146406A56
:101CD00009680968890613D40021C1850168CA68AA
:101CE00022F48072CA6001684A6922F001024A61E6
:101CF00001684A6922F040024A61202180F83A10C6
:101D0000FFF7A6FC10BD10B5406AFFF7A2FC10BD9E
:101D10000168CA6822F49072CA6001684A6922F0B8
:101D200001024A61202180F83A1070470168CA68B0
:101D300022F0C002CA60202180F83910704710B527
:101D400090F83A10222901D0022010BD8168B1F527
:101D5000805F11D00169002901681FD0496801F036
:101D60007F03816A4A1C82620B70C18D491E09047F
:101D7000090CC18518D02BE00269816A002A02682B
:101D8000526805D0D2B20A80816A491C8162ECE7B0
:101D9000C2F308020A80816A891CF7E74A68816AEF
:101DA0004B1C83620A70E0E70168CA6822F02002D7
:101DB000CA600168CA6822F48072CA6001684A6910
:101DC00022F001024A61202180F83A10FFF740FC1E
:101DD000002010BD2DE9F041044600680169E26869
:101DE00021F44051114301612169A06808436169F0
:101DF00008432168CA6841F20C639A430243CA60EF
:101E000020684169A26921F44071114341614C4944
:101E100020686425322688423CD1FEF797FF00EB0C
:101E2000C00101EB001061688900B0FBF1F7FEF71B
:101E30008DFF00EBC00101EB00106168B046890026
:101E4000B0FBF1F0B0FBF5F06FF01801484307EB81
:101E5000800106EB0110B0FBF5F000F0F006FEF794
:101E600075FF00EBC00101EB001061688900B0FB59
:101E7000F1F0B0FBF5F006EB0016FEF767FF00EBA4
:101E8000C00101EB001061688900B0FBF1F7FEF7BB
:101E90005DFF3BE0FEF74AFF00EBC00101EB0010E5
:101EA00061688900B0FBF1F7FEF740FF00EBC0016D
:101EB00001EB00106168B0468900B0FBF1F0B0FBA7
:101EC000F5F06FF01801484307EB800106EB0110B5
:101ED000B0FBF5F000F0F006FEF728FF00EBC001C4
:101EE00001EB001061688900B0FBF1F0B0FBF5F088
:101EF00006EB0016FEF71AFF00EBC00101EB001025
:101F000061688900B0FBF1F7FEF710FF00EBC0013C
:101F100001EB001061688900B0FBF1F0B0FBF5F057
:101F20006FF01801484307EB800108EB0110B0FB8C
:101F3000F5F0216800F00F0030448860BDE8F081C2
:101F40000038014090F83910212901D00220704753
:101F50008168B1F5805F016A0BD04A1C0262026899
:101F600009785160C18C491E0904090CC1840ED046
:101F700017E009880268C1F308015160016900296E
:101F8000016A02D0491C0162ECE7891CFBE7016889
:101F9000CA6822F08002CA600068C16841F040014E
:101FA000C160002070472DE9F041984617460E4663
:101FB0000446069D1DE0681C1BD02DB1FEF706FDF2
:101FC000A0EB0800A84214D92068C16821F4D071A0
:101FD000C1602068416921F001014161202084F83D
:101FE000390084F83A00002084F838000320BDE866
:101FF000F0812068006836EA000004D00020B84272
:10200000D9D00020F3E70120F9E7000038B51D48DA
:10201000FFF79CF91B4C20680068C043C0061FD422
:102020002046FFF766F918480068406821680025D7
:102030000A684968C0F1FF00C2B2144C009114480C
:102040002270144902701448FEF7EAF8217811480A
:10205000FEF7FFF82570FF220E490A48FFF7ACFA99
:102060000F480E49006801F0A9F80C4800680028E4
:1020700007D00C494FF080500860BFF34F8FBFF37B
:102080006F8F38BD88020020080300200000002068
:10209000010000208800002087010020100000209F
:1020A0000C00002004ED00E00148FFF74FB90000EC
:1020B000C8020020FEE7FEE70FB4054B10B503A9E8
:1020C000044A029800F018F810BC5DF814FB0000F8
:1020D0005D2500088400002002E008C8121F08C126
:1020E000002AFAD170477047002001E001C1121F99
:1020F000002AFBD1704700002DE9FF4F8DB00F463D
:102100000546002606E025280BD0DDE90F12904792
:102110006D1C761C28780028F5D111B03046BDE83A
:10212000F08F0024A246A1460122EC4900E00443BE
:1021300015F8013F203B02FA03F00842F7D1287856
:102140002A2810D06FF02F022878A0F13001092939
:1021500014D80AEB8A0102EB410144F0020400EBBF
:10216000010A6D1CF0E701CF5FEA000A03D544F4D1
:102170000054CAF1000A44F002046D1C28782E288D
:1021800017D115F8010F44F004042A280ED06FF07F
:102190002F022878A0F1300109290AD809EB89011A
:1021A00002EB410100EB01096D1CF2E757F8049BBB
:1021B0006D1C28786C280FD006DC4C2817D06828B6
:1021C0000DD06A2814D104E0742810D07A280FD1D9
:1021D0000DE044F400140AE044F4801401E044F4F7
:1021E00040146978814202D104F580146D1C6D1C85
:1021F0002A786E2A1FD00CDC632A31D004DC002A36
:102200008BD0582A11D1A3E0642A68D0692A0CD156
:1022100065E0732A2ED004DC6F2A73D0702A04D1B3
:102220009BE0752A6FD0782A6ED01046DDE90F1238
:102230009047761C50E1C4F30250022806D00328D0
:1022400009D0042801CF09D0066045E101CFF1177C
:10225000C0E9006140E101CF06803DE106703BE14D
:1022600017F8040B8DF8000000208DF80100EB46F4
:10227000012003E057F804BB4FF0FF3061074FF037
:10228000000102D40DE008F10101884649450FDA4A
:102290008045F8DB1BF808100029F4D108E008F1AC
:1022A000010188468142FADB1BF808100029F6D1AB
:1022B000DDE90F23AAEB08008146214600F036F93C
:1022C000304400EB080604E0DDE90F121BF8010BB7
:1022D0009047B8F10108F7D221464846F7E00A21B5
:1022E000C4F302534FF0000B0891022B04D001CF2E
:1022F000C117032B09D00AE0FF1D27F00707F7E8F5
:10230000020108E032E01FE020E000B2C117042B18
:1023100001D140B2C117031E71F1000307DA4FF07B
:10232000000CD0EB0C006CEB01012D2302E0230527
:1023300004D52B238DF82430012303E0E30701D0DB
:102340002023F7E7984658E00A2110E010210EE01C
:1023500010204FF0000B08900CE010214FF0000B04
:1023600044F004044FF00809089103E008214FF0FD
:10237000000B0891C4F30253022B04D001CF0021BB
:10238000032B06D006E0FF1D27F00707F7E8020140
:1023900003E080B2042B00D1C0B24FF00008230745
:1023A0002BD5702A07D0DDF820C08CF0100C5CEA29
:1023B0000B0C05D00EE040238DF82430012308E0FB
:1023C00050EA010306D030238DF824308DF8252003
:1023D00002239846DDF820C08CF0080C5CEA0B0C58
:1023E0000BD150EA010301D1630706D530238DF8E4
:1023F00024304FF00108A9F10109582A04D038A26D
:102400000B9208AA0A920BE03AA2F9E75B46089AF7
:10241000FDF72AFF0B9B9B5C0A9A521E0A921370CF
:1024200050EA0102F2D10A98ADEB000000F1200B56
:10243000600702D524F4803401E04FF00109D9454A
:1024400002DDA9EB0B0000E0002000EB0B01414492
:102450000890AAEB010AE00306D4DDE90F23214628
:10246000504600F063F806444FF0000908E009A95F
:1024700011F80900DDE90F12904709F10109761CF6
:10248000C145F4DBE0030CD5DDE90F2321465046BE
:1024900000F04CF8064404E0DDE90F1230209047CC
:1024A000761C0899481E08900029F5DC08E00A9877
:1024B0000A990078491C0A91DDE90F129047761CB1
:1024C000BBF10001ABF1010BF1DC21465046DDE927
:1024D0000F2300F019F806446D1C1BE609280100C3
:1024E000303132333435363738396162636465668A
:1024F000000000003031323334353637383941424C
:1025000043444546000000002DE9F0410446002503
:102510001E461746880404D405E039462020B047FB
:102520006D1C641EF9D52846BDE8F0812DE9F04107
:10253000044600251E469046C80301D5302700E01A
:102540002027880404D505E041463846B0476D1C75
:10255000641EF9D52846BDE8F081000013B50223BA
:10256000012269460248FFF775F800981CBD00007B
:10257000C8020020FEF738FAFFF7D6FAFFF704F991
:10258000FFF7C8F8FFF71EF9FFF746F9074800689C
:10259000C16841F01001C160FF2205490348FFF7FF
:1025A0000BF8FFF7CDF800F012F8FEE788020020E4
:1025B0008800002001460020842900D0C81C7047F4
:1025C00010B500B9012000F089FB002010BD10B546
:1025D00000F01CFC002010BD10B500F09FFE01288B
:1025E00003D0BDE8104000F0B5BC10BD3EB50446B8
:1025F0000D46B0F90800FFF7DDFF02A9CDE90001A3
:10260000208A2B4682B2D4E9001000F05BFE01283C
:1026100001D000203EBD02983EBD00002DE9F041F2
:10262000184C0F460546E6682068001D00F076FA53
:1026300038B9206890F82C10012088402169814326
:102640002161681C07D137B12168BDE8F0410E480F
:10265000091D00F09BBA20683544B54245602168E9
:1026600005D2A06BBDE8F041091D00F077BA606BA0
:10267000091D00F073FAA06A854200D2A562BDE888
:10268000F081000048000020681000202DE9F04192
:10269000054600F087FA2E4CA068401CA060206818
:1026A0002C4F10B1606940B32DE02560A06801286F
:1026B00029D1002606EB860007EB800000F040FAE7
:1026C000761C072EF6D323488C3000F039FA2148C7
:1026D000A03000F035FA1F48B43000F031FA1D4840
:1026E000C83000F02DFA1B48DC3000F029FA1948F8
:1026F0008C3060631430A06305E02068E96AC06A2A
:10270000884200D82560606A401C6062E96A012046
:10271000226988401043206101EB810007EB8000B3
:10272000291D00F033FA00F05DFA606900280CD032
:102730002068E96AC06A884207D207494FF0805092
:102740000860BFF34F8FBFF36F8FBDE8F0810000CB
:10275000480000208C0F002004ED00E070B5114E01
:10276000114C17E000F086FB3068B8B100F082FE33
:1027700000F018FAF068C568281D00F0CFF9A068CD
:10278000401EA0606068401E606000F02BFA284682
:1027900000F01FF860680028E4D170BD00F06AFE08
:1027A000F8E70000541000204800002030B4026C0C
:1027B0000B46002A0BD0C1681144C1604468A14295
:1027C00001D30168C16030BC1846FDF729BD30BC9B
:1027D000704710B50446006B00F018FA2046BDE8BB
:1027E000104000F013BA000010484FF44061420757
:1027F00006D0C01D0D4920F00700411AC1F5406107
:102800000B4A00230144C2E900030839103A21F0C1
:10281000070111604B600B600B1AC0E90013936055
:102820004FF000405360D060704700008C030020E0
:1028300034000020074C4FF08056074DFFF78EFF05
:1028400020680128FAD92E60BFF34F8FBFF36F8F36
:10285000F4E700008C0F002004ED00E02DE9F047C4
:102860009A46DDE9098481466FF00303206B03EB90
:1028700082021044089D20F00706700707D0502000
:1028800080F31188BFF34F8FBFF36F8FFEE72318DC
:102890000A5C83F834200A5C12B1401C1028F6D37D
:1028A000002784F84370072D00D30625E562C4E9AC
:1028B0001157201D00F04FF904F1180000F04BF9FA
:1028C0002461C5F107006462A061E76484F8507078
:1028D00052464946304600F00FF92060B8F1000F2B
:1028E00001D0C8F80040BDE8F087000030B51149BC
:1028F00000E011460A688242FBD34B685C188442B0
:1029000003D1406818444860084643681C18944244
:1029100009D1084C103C2468A24209D052681A44DC
:1029200042600A6812680260814200D0086030BDCF
:102930000460F9E73400002010B5044600F032F9D5
:10294000A06B28B15FF0000400F04CF9204610BDE8
:102950000124F9E70648416B096829B1416BC96850
:10296000C9684968816270474FF0FF31FAE700009B
:102970004800002008484068401C4FF0500080F399
:10298000118804D0BFF34F8FBFF36F8FFEE7BFF303
:102990004F8FBFF36F8FFEE73C0000202DE9F04121
:1029A000044600F0FFF894F9455004F1240609E0CC
:1029B000606A48B1304600F023FD08B100F0B4F978
:1029C0006D1E6DB2002DF3DC4FF0FF3684F84560CC
:1029D00000F008F900F0E6F894F9445004F110070B
:1029E00009E0206948B1384600F00AFD08B100F05E
:1029F0009BF96D1E6DB2002DF3DC84F84460BDE8D8
:102A0000F04100F0EFB800002DE9F0410546002745
:102A100000F030FA314E306808B9FFF7E5FEF06893
:102A200005424BD1C5B3083568070ED005F0070045
:102A3000C0F108000544680707D0502080F31188D2
:102A4000BFF34F8FBFF36F8FFEE72DB370688542E2
:102A500034D82248103001460C6801E020460C466C
:102A60006168A94202D221680029F7D131688C42FD
:102A700024D007682168016060680837411B10296D
:102A80000FD96019420708D0502080F31188BFF396
:102A90004F8FBFF36F8FFEE710E041606560FFF777
:102AA00025FF61687068401A7060B268904200D279
:102AB000B060F06801430020C4E9000100F0DAFCD6
:102AC000780707D0502080F31188BFF34F8FBFF3F2
:102AD0006F8FFEE73846BDE8F0810000240000203B
:102AE0000449086818B10868826C521C826408683E
:102AF000704700004800002010B5031F4FF080749D
:102B00001C601B1F21F001011960191F024B0B6093
:102B1000143940380A6010BD75290008D0E9013227
:102B200001699A60D0E901235A604A68824201D162
:102B300082684A60002202610868401E086070478F
:102B400000F108014FF0FF32C0E90112C1600161DC
:102B500000210160704700210161704730B50B68AA
:102B60005A1C02D000F1080202E0026904E0224689
:102B7000546825689D42FAD953684B6099608A6011
:102B8000516008610168491C016030BD42684A60BB
:102B900093688B6093685960916008610168491C73
:102BA00001607047502080F31188BFF34F8FBFF34F
:102BB0006F8F0A494868401C486001280CD10848BA
:102BC000006810F0FF0F07D0502080F31188BFF38A
:102BD0004F8FBFF36F8FFEE7704700003C0000206F
:102BE00004ED00E00849486828B1401E486001D162
:102BF00080F311887047502080F31188BFF34F8F06
:102C0000BFF36F8FFEE700003C00002070B5002886
:102C100027D0144DA0F108046168E868014207D18B
:102C2000502080F31188BFF34F8FBFF36F8FFEE703
:102C300022683AB1502080F31188BFF34F8FBFF361
:102C40006F8FFEE78143616000F014F96068696886
:102C5000084468602046FFF749FEBDE8704000F078
:102C600009BC70BD2400002006484FF47A7100684A
:102C7000B0FBF1F14FF0E020491E416107210161F5
:102C8000704700002000002010B5FDF7A3FA11499D
:102C900010280ED300F1E02090F8F0030A7890425B
:102CA00007D2502080F31188BFF34F8FBFF36F8F8F
:102CB000FEE709480068896800F4E060884207D9A7
:102CC000502080F31188BFF34F8FBFF36F8FFEE763
:102CD00010BD00003C0000200CED00E010B502002B
:102CE00014D00F48006B38B1502080F31188BFF327
:102CF0004F8FBFF36F8FFEE700F0BCF80021104646
:102D0000FFF78CFC00F0B6FB002807D105494FF017
:102D100080500860BFF34F8FBFF36F8F10BD00006E
:102D20004800002004ED00E001490120C86170471F
:102D30004800002010B50C4650B109490968183107
:102D4000FFF70CFF2046BDE810400121FFF766BCED
:102D5000502080F31188BFF34F8FBFF36F8FFEE7D2
:102D60004800002070B5040039D01D4DE06A296884
:102D7000C96A884233D2A069002804DB2868C06A87
:102D8000C0F10700A061E16A164E01EB81016069A4
:102D900006EB810188421FD1201DFFF7BFFE0121F4
:102DA00050B9E06A00EB800256F8222022B92A6965
:102DB00001FA00F082432A612868C06AE0622A6949
:102DC00081401143296100EB800006EB8000211D4A
:102DD000BDE87040FFF7DABE2868C06AE06270BDE7
:102DE000480000208C0F002028B107490A6A0260C1
:102DF000C96841607047502080F31188BFF34F8F3E
:102E0000BFF36F8FFEE70000480000201CB5154897
:102E10000024CDE900402346802213A1144800F08D
:102E200051FA012809D0401C1AD1502080F3118892
:102E3000BFF34F8FBFF36F8FFEE7502080F31188F1
:102E4000BFF34F8FBFF36F8F06484FF0FF312C3821
:102E5000816201214161C460BDE81C4000F040B8BE
:102E60001CBD00007400002049444C4500000000D7
:102E7000352800080248016B491C016370470000B7
:102E8000480000201448016B11B10121C161704755
:102E90000021C1610169B1FA81F1C1F11F0101EBAA
:102EA00081020E4951F822306BB101EB820101F130
:102EB00008034A6852684A609A4201D152684A60DF
:102EC000D16801607047502080F31188BFF34F8FA5
:102ED000BFF36F8FFEE70000480000208C0F00203A
:102EE0001CB5194908780190FF20087008788DF802
:102EF00000009DF80000154A00F0500010700720F7
:102F0000906005E09DF800305B008DF80030401EB9
:102F10009DF800301B06F5D4000200F4E0609060DC
:102F2000019808700A48016841F470010160016865
:102F300041F070410160FFF797FE00205060FDF7FF
:102F400013F900201CBD000000E400E03C0000205C
:102F500020ED00E010B5502080F31188BFF34F8FB3
:102F6000BFF36F8F00F0E8F918B104494FF08050BB
:102F70000860002080F3118810BD000004ED00E01F
:102F800070B50E46050013D0D6B105FB06F04830EB
:102F9000FFF73AFD040009D004F1480120468EB144
:102FA0000160C0E90F56012100F0C4F8204670BD51
:102FB000502080F31188BFF34F8FBFF36F8FFEE770
:102FC0000020E4E70060ECE72DE9FF4F002683B026
:102FD0009B468A46040003D0BAF1000F08D011E0E6
:102FE000502080F31188BFF34F8FBFF36F8FFEE740
:102FF000206C38B1502080F31188BFF34F8FBFF39E
:103000006F8FFEE700F08AF9DFF824814FF00009A6
:103010004FF0805748B9059838B1502080F3118897
:10302000BFF34F8FBFF36F8FFEE7FFF7BBFDA56BBD
:1030300045B351462046E668FFF7B8FBBBF1000FE9
:1030400013D0E660606A50B104F1240000F0D8F9B2
:1030500028B1C8F80070BFF34F8FBFF36F8FFFF731
:10306000C1FD012007B0BDE8F08F6D1EA56320688B
:1030700010B9FFF735FD606020690028EFD004F13A
:103080001000E3E7059808B11EB106E0FFF7AAFDBE
:1030900027E06846FFF7A8FE0126FFF7A3FDFFF72C
:1030A000E9FEFFF77FFD94F94400401C01D184F84C
:1030B000449094F94500401C01D184F84590FFF7F5
:1030C00091FD05A9684600F0C7F8002820460AD0FF
:1030D000FFF764FC00F0CEF92046FFF72DFC002836
:1030E000A3D00020BEE7FFF727FCD8B1206830B995
:1030F000FFF758FD6068FFF735FEFFF773FD04F139
:1031000024000599FFF716FE2046FFF747FC00F064
:10311000B1F9002889D1C8F80070BFF34F8FBFF311
:103120006F8F82E72046FFF739FC00F0A3F97CE7B8
:1031300004ED00E070B50D46040025D0FFF732FD28
:10314000D4E90F20216802FB001161600021A16316
:103150002168A1600A46D4E90F01401E00FB01214D
:10316000E16021464FF0FF3001F8440F487004F150
:1031700010008DB1FFF7E4FC04F12400FFF7E0FC40
:10318000FFF730FD012070BD502080F31188BFF3A0
:103190004F8FBFF36F8FFEE721690029F0D000F059
:1031A0002FF90028ECD004494FF080500860BFF39D
:1031B0004F8FBFF36F8FE3E704ED00E070B50E466D
:1031C000040009D0206C78B1502080F31188BFF33F
:1031D0004F8FBFF36F8FFEE7502080F31188BFF34E
:1031E0004F8FBFF36F8FFEE7206848B9606838B132
:1031F000502080F31188BFF34F8FBFF36F8FFEE72E
:10320000FFF742FD5020EFF3118580F31188BFF3E3
:103210004F8FBFF36F8FA16BE06B884218D994F981
:103220004500491CA163411C04D0401C84F84500A2
:1032300001200EE0606A0028FAD004F1240000F0BA
:10324000DFF80028F4D0002EF2D001203060EFE744
:10325000002085F3118870BD70B50D46040019D0AB
:1032600005B3FFF79FFC164AD1682868431C0FD0AE
:103270002368126A934202D062688A421AD962684D
:10328000891A814216D2401A28602046FFF7ACFD09
:10329000002410E0502080F31188BFF34F8FBFF35C
:1032A0006F8FFEE7502080F31188BFF34F8FBFF37D
:1032B0006F8FFEE70124FFF795FC204670BD0000EC
:1032C000480000202DE9FF5F8346DDE90E8799461F
:1032D00016468A469000FFF797FB05001AD0542047
:1032E000FFF792FB040012D025630021CDE90241D3
:1032F000CDE900874B46324651465846FFF7AEFAB5
:103300002046FFF7C3F9012004B0BDE8F09F28462E
:10331000FFF77CFC4FF0FF30F6E7000005484169FD
:1033200019B1006B18B100207047012070470220CE
:1033300070470000480000202DE9F0412E4C002786
:10334000206B40B1A069401CA061E06900B1012779
:103350003846BDE8F081E668761CE66013D1606B04
:10336000006838B1502080F31188BFF34F8FBFF34E
:103370006F8FFEE7606BA16B6163A063206A401CE6
:103380002062FFF7E7FAA06ADFF87080864209D36F
:10339000606B006880B1606BC068C5686868864211
:1033A0000DD2A0622068C06A00EB800158F82100AD
:1033B0000128CAD90127C8E74FF0FF30F1E7281DDF
:1033C000FFF7ACFBA86A18B105F11800FFF7A6FBE0
:1033D000E86A0121226981401143216100EB8001EB
:1033E00008EB8100291DFFF7D1FBE86A2168C96A53
:1033F0008842CDD30127CBE7480000208C0F002066
:103400002DE9F041C068C468ACB104F1180007466A
:10341000FFF784FB154D286B0126A0B139461448EF
:10342000FFF7B4FBE06A2968C96A88421CD9012009
:10343000EE61BDE8F081502080F31188BFF34F8F1B
:10344000BFF36F8FFEE7201DFFF768FBE16A2A6973
:1034500006FA01F01043286101EB81000449B439F8
:1034600001EB8000211DDBE70020E2E7480000209F
:10347000401000202DE9F0472C4D00242746286BF2
:1034800038B1FFF78FFB286B401E2863286B40B1D3
:1034900046E0502080F31188BFF34F8FBFF36F8F4A
:1034A000FEE7A968224E0120D1B3A6F1B4098046F7
:1034B0003068E8B1F068C46804F11800FFF72EFB2B
:1034C000201DFFF72BFBE06A2A6908FA00F111437F
:1034D000296100EB800109EB8100211DFFF756FBFC
:1034E000E06A2968C96A8842E2D3C5F81C80DFE730
:1034F0000CB1FFF72FFAAC6944B14646FFF71CFF49
:1035000000B1EE61641EF9D10020A861E86938B10C
:103510000849012738070860BFF34F8FBFF36F8F4B
:10352000FFF760FB3846BDE8F08700004800002048
:103530004010002004ED00E07835000889180008EC
:10354000000000000000000080000000843500083A
:103550009518000802000000000000008000000034
:103560000000000000000000010203040607080933
:10357000000000000102030464656661756C745408
:1035800061736B0075736172745461736B0000003A
:10359000B03500080000002088000000D820000896
:1035A0003836000888000020F8130000E8200008E2
:1035B000000000000000000000000000000000000B
:1035C00000000000010000001000000000000000EA
:1035D00000A24A04000000000000000000000000FB
:1035E00000000000000000000000000000000000DB
:1035F000AAAAAAAA00000000000000000000000023
:1036000000000000000000000000000000000000BA
:1036100000000000000000000000000000000000AA
:10362000000000000000000000000000000000009A
:08363000000000000000000092
:0400000508000131BD
:00000001FF
