:03000000020F7D6F
:0C0F7D00787FE4F6D8FD758121020FC4D6
:10107E00484C57383033322054657874210D0A00AD
:10108E00B5E7D1B9D6B5A3BA25302E3266563B2078
:10109E0000B5E7C1F7D6B5A3BA25302E3366413B6E
:1010AE0020004E6F204465766963652100D3D0D051
:1010BE00A7B9A6C2CAA3BA25302E3266573B200066
:1010CE00D2D1D3C3C2F6B3E5A3BA25640D0A006428
:0C10DE00617461206572726F720D0A006F
:10000300C1094100B1004100B2004400B33FF0A375
:08001300D74400AD3EAA7EFABD
:10100900E4900000F07598DA758920758BFA758D72
:10101900FAD28ED2ACD2AF7BFF7A10797E12117AD6
:101029003009FD9000B2E004F0E0D394054041E4BA
:10103900F09000B8E0B45A319000B1E0B4182A1227
:101049000B9DE4900000F09000B1E0FF900000E0FB
:10105900FEC39F501474B72EF582E43400F583E47F
:10106900F0900000E004F080DEE49000B1F0C209E5
:051079001211E680AB3E
:100B9D009000011205D5000000009000051205D54A
:100BAD00000000009000091205D500000000900023
:100BBD000D1205D5000000009000111205D50000A2
:100BCD0000009000151205D500000000E4900019FA
:100BDD00F0A3F0A3F0A3F0A31205D5000000009040
:100BED0000211205D5000000009000251205D5004A
:100BFD000000009000291205D5000000009000B7FC
:100C0D00E064AA7003020F739000B9E0FFE4FCFDED
:100C1D00FEFBFA7901F812056CA804A905AA06AB2A
:100C2D00079000BAE0FEE4FCFD2BFBEA3EFAED393D
:100C3D00F9EC38F8A3E0FFE4FEEB2FFFEE3AFEED02
:100C4D0039FDEC38FC9000011205C99000BCE0FFA5
:100C5D00E4FCFDFEFBFA7901F812056CA804A90568
:100C6D00AA06AB079000BDE0FEE4FCFD2BFBEA3EBF
:100C7D00FAED39F9EC38F8A3E0FFE4FEEB2FFFEEC7
:100C8D003AFEED39FDEC38FC9000051205C99000D7
:100C9D0005E0F8A3E0F9A3E0FAA3E0FB900001E082
:100CAD00FCA3E0FDA3E0FEA3E0FF121130EC120166
:100CBD00CC9000B3E0F8A3E0F9A3E0FAA3E0FB12B7
:100CCD00002690001D1205C990008074FFF0A374DA
:100CDD0010F0A3748EF090001DE0FCA3E0FDA3E0E6
:100CED00FEA3E0FF9000831205C97B017A00792DE8
:100CFD0012077F1211749000BFE0FFE4FCFDFEFBB4
:100D0D00FA7901F812056CA804A905AA06AB07909B
:100D1D0000C0E0FEE4FCFD2BFBEA3EFAED39F9ECF8
:100D2D0038F8A3E0FFE4FEEB2FFFEE3AFEED39FDC0
:100D3D00EC38FC9000091205C99000C2E0FFE4FCFC
:100D4D00FDFEFBFA7901F812056CA804A905AA06A7
:100D5D00AB079000C3E0FEE4FCFD2BFBEA3EFAED91
:100D6D0039F9EC38F8A3E0FFE4FEEB2FFFEE3AFE85
:100D7D00ED39FDEC38FC90000D1205C9900009E02D
:100D8D00FCA3E0FDA3E0FEA3E0FFEC1201CC90007C
:100D9D00ADE0F8A3E0F9A3E0FAA3E0FB120026E42E
:100DAD00FBFA79C87842120026C004C005C006C0FF
:100DBD000790000DE0FCA3E0FDA3E0FEA3E0FFEC37
:100DCD001201CCA804A905AA06AB07D007D006D0FE
:100DDD0005D00412012FE4FBFA79C8784212012FD5
:100DED009000211205C990008074FFF0A37410F0DB
:100DFD00A3749FF0900021E0FCA3E0FDA3E0FEA30F
:100E0D00E0FF9000831205C97B017A00792D12074E
:100E1D007F1211749000B7E0D394F040097BFF7AF4
:100E2D001079B0020F359000C5E0FFE4FCFDFEFB2C
:100E3D00FA7901F812056CA804A905AA06AB07906A
:100E4D0000C6E0FEE4FCFD2BFBEA3EFAED39F9ECC1
:100E5D0038F8A3E0FFE4FEEB2FFFEE3AFEED39FD8F
:100E6D00EC38FC9000111205C99000C8E0FFE4FCBD
:100E7D00FDFEFBFA7901F812056CA804A905AA0676
:100E8D00AB079000C9E0FEE4FCFD2BFBEA3EFAED5A
:100E9D0039F9EC38F8A3E0FFE4FEEB2FFFEE3AFE54
:100EAD00ED39FDEC38FC9000151205C9900015E0E8
:100EBD00F8A3E0F9A3E0FAA3E0FB900011E0FCA396
:100ECD00E0FDA3E0FEA3E0FF121130EC1201CC9087
:100EDD0000B3E0F8A3E0F9A3E0FAA3E0FB120026CB
:100EED009000ADE0F8A3E0F9A3E0FAA3E0FB120057
:100EFD00269000251205C990008074FFF0A3741090
:100F0D00F0A374BBF0900025E0FCA3E0FDA3E0FE90
:100F1D00A3E0FF9000831205C97B017A00792D12A1
:100F2D00077F7B017A00792D12117A9000CCE0FEBB
:100F3D00A3E07C002400FFEC3EFE900019F0A3EF2F
:100F4D00F090008074FFF0A37410F0A374CEF0A3A2
:100F5D00EEF0A3EFF07B017A00792D12077F7B0174
:0F0F6D007A00792D80067BFF7A1079DD12117AD8
:010F7C002252
:0811E6007F047E71DEFEDFFADA
:0111EE0022DE
:030023000210EADE
:1010EA00C0E0C083C082C0D075D000C00730982449
:1010FA009000B2E4F0200902D209C2989000B1E04F
:10110A00FF04F074B72FF582E43400F583E599F013
:10111A00A29A92A2309904C299C20AD007D0D0D01A
:06112A0082D083D0E03208
:1011D400200AFDEF30D004D29B8002C29BD20AF5D4
:0211E40099224E
:061174007B017A00792DD9
:10117A0090007DEBF0A3EAF0A3E9F090007DE0FB9C
:10118A00A3E0FAA3E0F91204FE601790007DA3E43D
:10119A0075F001120556A9F0FA1204FEFF1211D4D5
:0311AA0080D922C7
:10002600EC4D6011E8497017ED33EC3304600DE4D4
:10003600FCFFFEFD22E933E8330470F802023F12AA
:10004600020A58046009E4CC2481500628500902AB
:100056000249284003020246C0E0EB4A7044B980D8
:1000660006D0E0FB020235EF4E701CBD8008EBFFA8
:10007600EAFEE9FD80EBE98DF0A4FEE5F002010F52
:10008600E9CDF9EAFEEBFFEF89F0A4FCE5F0CE89B5
:10009600F0A42EFFE435F0CD89F0A42DFEE435F072
:1000A6008067EF4E7005BD80D780C3EF8BF0A4ACA0
:1000B600F0EE8BF0A42CFCE435F0F8EF8AF0A42CDB
:1000C600E5F038FCE433CB8DF0A42CFCE5F03BF8EE
:1000D600EE8AF0A42CFCE5F038F8E433CF89F0A4DE
:1000E6002CFCE5F038CF3400CE89F0A42FFFE5F0E4
:1000F6003EFEE433C98DF0A42EFEE5F039CD8AF03C
:10010600A42FFFE5F03EFEE43DFD33D0E0FB5007B3
:100116000BBB000F020249EC2CFCEF33FFEE33FE63
:06012600ED33FD02022191
:10012C00020249EC5D046005E85904700302023FC9
:10013C0012020A580460F6EC4860F2EC7004FDFE02
:10014C00FF22C860DB2481C85009C39860025006A6
:10015C000202469850CAF582E9294B4A7005AB82D7
:10016C0002023575F0007C1A7880C3EF9BEE9AED95
:10017C0099400DC3EF9BFFEE9AFEED99FDE842F01E
:10018C00DC23ACF0D0E0FFD0E0FED0E0FDAB822071
:10019C00E7101BEB60BAEC2CFCEF33FFEE33FEEDFB
:1001AC0033FD020221E803F830E705C0F075F000DA
:1001BC00EF2FFFEE33FEED33FD40B830E7C280AADF
:1001CC0075F020800E75F010800575F0087D007EAE
:1001DC00007F003392D530D5031205BBEC334010B1
:1001EC00EF33FFEE33FEED33FDEC33FCD5F0ED22B7
:0E01FC00E5F0247EA2D513CC92E7CDCEFF22F3
:10071A00E5082480F582E43400F583E00508229098
:10072A00007D300703900080E475F001120606028E
:10073A0004FE2000E97F2ED2008018EF540F249087
:10074A00D43440D4FF30040BEF24BFB41A00500352
:10075A002461FFE50960021509050CE50C70020524
:10076A000B30070E90007DE475F001120606EF02C9
:10077A0005440211AD7403D2078003E4C207F508E9
:10078A0090007D12061DE4F509F50BF50CE50960EC
:10079A00077F2012075D80F5750AFFC201C200C2F9
:1007AA0002C203C205C206C208120729FF700D3031
:1007BA0007057F0012076EAF0CAE0B22B4255FC28D
:1007CA00D5C204120729FF24D0B40A00501A75F0C2
:1007DA000A780930D50508B6FF0106C6A426F62010
:1007EA00D5047002D20380D924CFB41A00EF500482
:1007FA00C2E5D204020A60D20180C6D20080C0D209
:10080A000280BCD2D580BAD20580B47F2012075D9F
:10081A002002077401B5090040F112071AFF1207F6
:10082A005D020797D208D206809512071AFB1207B3
:10083A001AFA12071AF94A4B7006795E7A0B7BFF8D
:10084A0020022EE509602A7E008E82758300120539
:10085A001760060EEE650A70F0C2D5EBC0E0EAC07A
:10086A00E0E9C0E0EE120AC1D0E0F9D0E0FAD0E047
:10087A00FB1204FEFF60AAEBC0E0EAC0E0E9C0E0B8
:10088A0012075DD0E02401F9D0E03400FAD0E0FB91
:10089A00E50A0460DCD50AD98087D20280A2120A4E
:1008AA00A360F7E50A700104120254A90A600DE573
:1008BA000A600914F50A120B4BEF60F3EA30E702FB
:1008CA00F404C3995079EAF4250A0430E701E404F0
:1008DA00F50A800D120AA360C1EA050A250A120266
:1008EA0054EA9000ACF030E701E4250A04D50A0482
:1008FA0020050114120AC1E4C0E0120B4B9000ACAF
:10090A00E0601320E70714F0120745802204F0D0B4
:10091A00E014C0E07F00120745E50A600712073CB1
:10092A00150A800B30050312073CD0E0020797D066
:10093A00E00480C4120AA3609EE50A0412025490DD
:10094A0000ACEAF0E50A2005026001042404120A58
:01095A00C1DB
:10095B0074FF04C0E0120B4B120745E50A20050299
:10096B00600312073CD0E0B50AE87F4512074F90B1
:10097B0000ACE07F2B30E7047F2DF404C0E01207BE
:10098B005DD0E075F00A84C0F0120746D0E0120784
:10099B0046020797791080027908C206C2088008C0
:1009AB00D2D5790A8004790AC2D5E50A047002F51A
:1009BB000AE4FAFDFEFF12071AFC7B082001131252
:1009CB00071AFD7B1030000A12071AFE12071AFFD6
:1009DB007B20EC3382D592D55013C3E43000069FB5
:1009EB00FFE49EFEE42001039DFDE49CFCE4CBF8B8
:1009FB00C201EC700CCFCECDCCE824F8F870F380AC
:100A0B0017C3EF33FFEE33FEED33FDEC33FCEB336B
:100A1B00FB994002FB0FD8E9EB300105F8D0E0C49D
:100A2B0048B201C0E00AEC4D4E4F78207B0070C2FB
:100A3B00EAB50A0040BCC0E0120AC3D0F0D0E020F7
:100A4B000104C4C0E0C4B201C0F0120746D0F0D517
:100A5B00F0EB020797120626083453099F58080536
:100A6B004C08014209A34F09AB4409AB49081A438F
:100A7B0009B15508DE46093E4508A8470B7E5008CC
:100A8B00092D080D2E08302B081123082E200B677B
:100A9B002A07C94800000828E50AB4FF03750A06AF
:100AAB0012071AFC12071AFD12071AFE12071AFF79
:100ABB009000A5020291790AA2D5200314300509F2
:100ACB00B910020404B9080104A2D5200602500192
:100ADB00042002689202B509005034C0E07F203038
:100AEB0003197F30A20272067205500F120B1AC245
:100AFB0002C206C205C2087F30800F300503E9C071
:100B0B00E012075D300503D0E0F9D0E0B509CC3039
:100B1B0005177F30B9100C12075D7F583004077F23
:100B2B00788003B9080312075D3002057F2D020799
:100B3B005D7F202008F87F2B2006F322920280CFC6
:100B4B007F00B40700500B24A5F582E43400F58335
:100B5B00E0FF22286E756C6C2900D20112071A3047
:100B6B0001F8C201780930D50108F60207C92D50EA
:100B7B0043495812071A2403B405004001E4900BB3
:100B8B00799312074E743A12074ED2037509040279
:020B9B00099FB0
:10020A00E9D2E7C933E833F892D5EDD2E7CD33EC3A
:07021A0033FC5002B2D522B3
:10022100EC30E7100FBF000C0EBE00080DBD00043E
:100231000BEB6014A2D5EB13FCED92E7FD2274FFEA
:10024100FCFDFEFF22E480F8A2D574FF13FC7D8043
:03025100E480EF57
:10025400F920E73624F950037907E4F42402FBE596
:1002640082158270021583DBF6E024FB501BE960E3
:1002740014E4F0E582158270021583E004F0B40AF8
:0D02840008E4F0D9EE7401F00A22C2D52280
:10029100ED33EC3392D5FA602AB4FF33EDC2E77B3C
:1002A100FF60067A0279B6E4227A0279BF20D5048A
:1002B1007A0279BA224E614E002B494E46002D49F1
:1002C1004E4600E47A08F0A3DAFC7B00740722C0F2
:1002D10083C082ECC0E0EDC0E0EEC0E0EFC0E0EA38
:1002E10075F010A4CAABF075F04DA42BFBE435F00A
:1002F100FCEA2410FAEB34C5FBEC34D9FCEDC2E77F
:10030100FF75F056A4F42411C5F0F434C58FF0A4A0
:100311002AE5F03BE43CF020E7141204BED0E0FFF4
:10032100D0E0FED0E0FDD0E0FC12012F8014F404F7
:100331001204BED0E0FFD0E0FED0E0FDD0E0FC1220
:100341000026D082D083E0FAEDD2E7CD33EC33241E
:1003510082FBE4C3CF33CFCE33CECD33CD33DBF30A
:100361007B0775F00A846004F0A31B0AE5F0F0A393
:100371008FF0740AA4FFACF08EF0740AA42CFEACCA
:10038100F050010C8DF0740AA42CFDE435F0F0A3BB
:05039100DBDE74072211
:1003960002023FE86480F8E933E83360110460F054
:1003A600ED33EC337009E8FCE9FDEAFEEBFF2204CD
:1003B60060DED3EB9FEA9EE99DE8C2E78CF0C2F7C8
:1003C60095F0400CE8CCF8E9CDF9EACEFAEBCFFB94
:1003D60012020A85D0F05804700320D5B3E80470E1
:1003E600075002B2D502024992D5EC0460F7E4CC7C
:1003F600C0E0C398F8603B94186008400DD0E0FB5D
:10040600020221E4FBFAC9FC8028E830E406E4C9CC
:10041600FBE4CAFCE830E305E4C9CACBFCE85407B0
:100426006010F8C3E913F9EA13FAEB13FBEC13FCBB
:10043600D8F130F52FC3E49CFCEF9BFFEE9AFEED5E
:1004460099FDD0E0FBEF4E4D4C701222DB03020209
:1004560046EC2CFCEF33FFEE33FEED33FDED30E7DB
:10046600EB020221EF2BFFEE3AFEED39FDD0E0FB69
:1004760050130BBB0003020249ED13FDEE13FEEF12
:0804860013FFEC13FC0202213C
:10048E003F8000004120000042C80000447A000076
:10049E00461C400047C35000497424004B189680F8
:1004AE004CBEBC205A0E1BCA6753C21C749DC5AEEF
:1004BE00FB60065407601C23231204ECEB543860D7
:1004CE00091204D81204E7120026ECF8EDF9EEFA40
:1004DE00EFCB22EB1204E780F1543803241C900476
:1004EE008EFE93FC0EEE93FD0EEE930ECE93FF2238
:100F8900021009E493A3F8E493A34003F68001F265
:100F990008DFF48029E493A3F85407240CC8C33369
:100FA900C4540F4420C8834004F456800146F6DF38
:100FB900E4800B0102040810204080900003E47EC5
:100FC900019360BCA3FF543F30E509541FFEE4932D
:100FD900A360010ECF54C025E060A840B8E493A3F4
:100FE900FAE493A3F8E493A3C8C582C8CAC583CA1F
:100FF900F0A3C8C582C8CAC583CADFE9DEE780BED7
:01001B0000E4
:1004FE00BB010689828A83E0225002E722BBFE02FC
:09050E00E32289828A83E493222E
:10051700BB010CE58229F582E5833AF583E0225099
:1005270006E92582F8E622BBFE06E92582F8E222E3
:0D053700E58229F582E5833AF583E49322FD
:10054400BB010689828A83F0225002F722BBFE0196
:02055400F32290
:10055600A3F8E0C5F025F0F0E58215827002158358
:06056600E0C838F0E822B5
:10056C00E88FF0A4CC8BF0A42CFCE98EF0A42CFC2E
:10057C008AF0EDA42CFCEA8EF0A4CDA8F08BF0A4AC
:10058C002DCC3825F0FDE98FF0A42CCD35F0FCEB0B
:10059C008EF0A4FEA9F0EB8FF0A4CFC5F02ECD39D0
:0F05AC00FEE43CFCEAA42DCE35F0FDE43CFC223D
:10113000C2D5E830E70FB2D5E4C39BFBE49AFAE4EA
:1011400099F9E498F8EC30E717B2D5121166120657
:1011500088E4C39BFBE49AFAE499F9E498F88003E5
:1011600012068830D50DE4C39FFFE49EFEE49DFD8A
:04117000E49CFC22DD
:0E05BB00C3E49FFFE49EFEE49DFDE49CFC2251
:0C05C900ECF0A3EDF0A3EEF0A3EFF022A5
:1005D500A8828583F0D083D0821205EC1205EC1237
:1005E50005EC1205ECE473E493A3C583C5F0C5835C
:1005F500C8C582C8F0A3C583C5F0C583C8C582C870
:0106050022D2
:10060600F8E0FBA3A3E0F925F0F0E582158270027D
:070616001583E0FA38F02221
:09061D00EBF0A3EAF0A3E9F022DE
:10062600D083D082F8E4937012740193700DA3A363
:1006360093F8740193F5828883E473740293686077
:06064600EFA3A3A380DF77
:1011AD00EFB40A07740D1211B8740A309811A8998A
:1011BD00B8130CC2983098FDA899C298B811F630A2
:0711CD0099FDC299F599227A
:10064C0075F008758200EF2FFFEE33FECD33CDCC65
:10065C0033CCC58233C5829BED9AEC99E5829840E8
:10066C000CF582EE9BFEED9AFDEC99FC0FD5F0D6C5
:10067C00E4CEFBE4CDFAE4CCF9A88222B800C1B9EF
:10068C000059BA002DEC8BF084CFCECDFCE5F0CB2D
:10069C00F97818EF2FFFEE33FEED33FDEC33FCEB66
:1006AC0033FB10D703994004EB99FB0FD8E5E4F921
:1006BC00FA227818EF2FFFEE33FEED33FDEC33FC0E
:1006CC00C933C910D7059BE99A4007EC9BFCE99A02
:1006DC00F90FD8E0E4C9FAE4CCFB2275F010EF2F47
:1006EC00FFEE33FEED33FDCC33CCC833C810D70747
:1006FC009BEC9AE899400AED9BFDEC9AFCE899F882
:0E070C000FD5F0DAE4CDFBE4CCFAE4C8F92214
:00000001FF
