:0300000002074AAA
:0C074A00787FE4F6D8FD75816402079109
:1007D60018400000000000000000000000000000BB
:1007E60000000000000000000000100C566F6C7442
:1007F6006167653A2020202E20207600101C506F5D
:10080600776572203A2020202E2020207700026271
:100816000000040800000000043000000000043856
:1008260000000000043400000000043C000000004A
:10083600045A0000000002580000045E0000000098
:06084600042C000000007C
:03001F00DFFE22DF
:0D08B500C2A58F807F051208C2D2A77F0563
:1008C200AE07AF061EEF600C7FF512001F7FF51218
:0508D200001F80EE2272
:08001700C2A61208B5C2A7221F
:0808EA00D2A61208B5C2A72234
:100003007F381200177F0C1200177F061200177F2C
:0400130001020017CF
:10089100AE07ED7005EE24808003EE24C0FF120048
:1008A100171201EBFF600C1208EA740129F9E43A0E
:0408B100FA80EE22B9
:1008D700759850758920758DFA858D8BD2ACD2AFFE
:0308E700D28E228C
:1005BB001208D7120003AE58AF59E4FCFD7BA07AAA
:1005CB00867901F812084DAC00AD01AE02AF03E421
:1005DB007B107A27F9F812084DEF2430F514AE583A
:1005EB00AF597C277D101202047E037FE8CFCDCF5D
:1005FB00CECCCE120204EF2430F515AE58AF597C99
:10060B00037DE81202047E007F64CFCDCFCECCCE2B
:10061B00120204EF2430F516AE58AF597C007D64FE
:10062B001202047E007F0ACFCDCFCECCCE120204B5
:10063B00EF2430F518AE58AF597C007D0A12020436
:10064B00ED2430F519AE58AF59E4FCFD7B407A42EE
:10065B00790FF812084DAC00AD01AE02AF037BA0D1
:10066B007A867901780012084DEF2430F5237BA0B0
:10067B007A8679017800AF2FAE2EAD2DAC2C1202FD
:10068B00E4AC00AD01AE02AF03E47B107A27F9F8BE
:10069B001202E4EF2430F524E47B107A27F9F8AF4B
:1006AB002FAE2EAD2DAC2C1202E4AC00AD01AE0280
:1006BB00AF03E47BE87A03F9F81202E4EF2430F598
:1006CB0025E47BE87A03F9F8AF2FAE2EAD2DAC2CD9
:1006DB001202E4AC00AD01AE02AF03E47B64FAF9A5
:1006EB00F81202E4EF2430F527E47B64FAF9F8AF53
:1006FB002FAE2EAD2DAC2C1202E4AC00AD01AE0230
:10070B00AF03E47B0AFAF9F81202E4EF2430F52880
:10071B00E47B0AFAF9F8AF2FAE2EAD2DAC2C1202FA
:10072B00E4EB2430F5297B007A00790CE4FDFF1211
:0F073B0008917A00791C0DE4FF1208910205C1A4
:0300230002038451
:10038400C0E0C0F0C083C082C0D075D000C000C03F
:0D03940001C002C003C004C005C006C007C0
:1003A100859964C29874402563F8A6640563E56382
:1003B10070020562C39418E5629400500302059827
:1003C100756200756300AF42E4FCFDFE7BFF7AFFBE
:1003D100F9F8120259A804A905AA06AB07E543FEDC
:1003E100E4FCFD2BFBEA3EFAED39F9EC38F8E4FECA
:1003F100EB2544FFEE3AFEED39FDEC388F0B8E0A0A
:100401008D09F508AF48E4FDFE7BFF7AFFF9F8128C
:100411000259A804A905AA06AB07E549FEE4FCFDBB
:100421002BFBEA3EFAED39F9EC38F8E4FEEB254A0C
:10043100FFEE3AFEED39FDEC38FC12012C8F338EC4
:10044100328D318C30AF4EE4FCFDFE7BFF7AFFF93B
:10045100F8120259A804A905AA06AB07E54FFEE464
:10046100FCFD2BFBEA3EFAED39F9EC38F8E4FEEB42
:100471002550FFEE3AFEED39FDEC388F3B8E3A8D7B
:1004810039F538AF45E4FDFE7BFF7AFFF9F812023A
:1004910059A804A905AA06AB07E546FEE4FCFD2B15
:1004A100FBEA3EFAED39F9EC38F8E4FEEB2547FFBB
:1004B100EE3AFEED39FDEC388F378E368D35F53459
:1004C100AF4BE4FDFE7BFF7AFFF9F8120259A80455
:1004D100A905AA06AB07E54CFEE4FCFD2BFBEA3EB1
:1004E100FAED39F9EC38F8E4FEEB254DFFEE3AFE72
:1004F100ED39FDEC38FC12012C8F3F8E3E8D3D8C89
:100501003CAF51E4FCFDFE7BFF7AFFF9F812025982
:10051100A804A905AA06AB07E552FEE4FCFD2BFBE6
:10052100EA3EFAED39F9EC38F8E4FEEB2553FFEE3B
:100531003AFEED39FDEC388F5D8E5C8D5BF55AAB83
:1005410037AA36A935A834AF0BAE0AAD09AC0812EB
:1005510002E4AD07AC06E4120131E4FBFA793C7820
:100561004312002612016A8E588F59AB5DAA5CA90D
:100571005BA85AAF3BAE3AAD39AC381202E4E41293
:10058100012CE4FBFA79EB784412002612016A8F00
:0F0591002F8E2E8D2D8C2C8564993099FDC2995B
:1005A000D007D006D005D004D003D002D001D000AF
:0B05B000D0D0D082D083D0F0D0E03259
:10002600EC4D6011E8497017ED33EC3304600DE4D4
:10003600FCFFFEFD22E933E8330470F80201D61214
:1000460001A158046009E4CC248150062850090215
:1000560001E02840030201DDC0E0EB4A7044B980AC
:1000660006D0E0FB0201CCEF4E701CBD8008EBFF12
:10007600EAFEE9FD80EBE98DF0A4FEE5F002010F52
:10008600E9CDF9EAFEEBFFEF89F0A4FCE5F0CE89B5
:10009600F0A42EFFE435F0CD89F0A42DFEE435F072
:1000A6008067EF4E7005BD80D780C3EF8BF0A4ACA0
:1000B600F0EE8BF0A42CFCE435F0F8EF8AF0A42CDB
:1000C600E5F038FCE433CB8DF0A42CFCE5F03BF8EE
:1000D600EE8AF0A42CFCE5F038F8E433CF89F0A4DE
:1000E6002CFCE5F038CF3400CE89F0A42FFFE5F0E4
:1000F6003EFEE433C98DF0A42EFEE5F039CD8AF03C
:10010600A42FFFE5F03EFEE43DFD33D0E0FB5007B3
:100116000BBB000F0201E0EC2CFCEF33FFEE33FECD
:06012600ED33FD0201B8FB
:10012C0075F020800E75F010800575F0087D007E4E
:10013C00007F003392D530D503120376EC33401098
:10014C00EF33FFEE33FEED33FDEC33FCD5F0ED2257
:0E015C00E5F0247EA2D513CC92E7CDCEFF2293
:10016A00EDD2E7CD33EC3392D524814006E4FFFE8D
:10017A00FDFC22FCE4CFCECDCC24E0501174FF80EC
:10018A00EDC3CC13CCCD13CDCE13CECF13CF047089
:07019A00F030D5DE02037610
:1001A100E9D2E7C933E833F892D5EDD2E7CD33ECA4
:0701B10033FC5002B2D5221D
:1001B800EC30E7100FBF000C0EBE00080DBD0004A8
:1001C8000BEB6014A2D5EB13FCED92E7FD2274FF54
:1001D800FCFDFEFF22E480F8A2D574FF13FC7D80AD
:0301E800E480EFC1
:100756000205BBE493A3F8E493A34003F68001F2F9
:1007660008DFF48029E493A3F85407240CC8C333A4
:10077600C4540F4420C8834004F456800146F6DF73
:10078600E4800B01020408102040809007D6E47E26
:10079600019360BCA3FF543F30E509541FFEE49368
:1007A600A360010ECF54C025E060A840B8E493A32F
:1007B600FAE493A3F8E493A3C8C582C8CAC583CA5A
:1007C600F0A3C8C582C8CAC583CADFE9DEE780BE12
:01084C0000AB
:1001EB00BB010689828A83E0225002E722BBFE0212
:0901FB00E32289828A83E4932245
:10020400BC000BBE0029EF8DF084FFADF022E4CCDE
:10021400F875F008EF2FFFEE33FEEC33FCEE9DECA7
:10022400984005FCEE9DFE0FD5F0E9E4CEFD22EDED
:10023400F8F5F0EE8420D21CFEADF075F008EF2F37
:10024400FFED33FD4007985006D5F0F222C398FD28
:050254000FD5F0EA22C5
:10025900E88FF0A4CC8BF0A42CFCE98EF0A42CFC44
:100269008AF0EDA42CFCEA8EF0A4CDA8F08BF0A4C2
:100279002DCC3825F0FDE98FF0A42CCD35F0FCEB21
:100289008EF0A4FEA9F0EB8FF0A4CFC5F02ECD39E6
:0F029900FEE43CFCEAA42DCE35F0FDE43CFC2253
:1002A80075F008758200EF2FFFEE33FECD33CDCC0D
:1002B80033CCC58233C5829BED9AEC99E582984090
:1002C8000CF582EE9BFEED9AFDEC99FC0FD5F0D66D
:1002D800E4CEFBE4CDFAE4CCF9A88222B800C1B997
:1002E8000059BA002DEC8BF084CFCECDFCE5F0CBD5
:1002F800F97818EF2FFFEE33FEED33FDEC33FCEB0E
:1003080033FB10D703994004EB99FB0FD8E5E4F9C8
:10031800FA227818EF2FFFEE33FEED33FDEC33FCB5
:10032800C933C910D7059BE99A4007EC9BFCE99AA9
:10033800F90FD8E0E4C9FAE4CCFB2275F010EF2FEE
:10034800FFEE33FEED33FDCC33CCC833C810D707EE
:100358009BEC9AE899400AED9BFDEC9AFCE899F829
:0E0368000FD5F0DAE4CDFBE4CCFAE4C8F922BC
:10084D00C2D5E830E70FB2D5E4C39BFBE49AFAE4D6
:10085D0099F9E498F8EC30E717B2D5120883120233
:10086D00E4E4C39BFBE49AFAE499F9E498F8800375
:10087D001202E430D50DE4C39FFFE49EFEE49DFD1E
:04088D00E49CFC22C9
:0E037600C3E49FFFE49EFEE49DFDE49CFC2298
:00000001FF
